{
  "_format": "hh-sol-artifact-1",
  "contractName": "RoniaMarket",
  "sourceName": "contracts/market/RoniaMarket.sol",
  "abi": [
    {
      "inputs": [
        {
          "internalType": "address payable",
          "name": "_platformAccount",
          "type": "address"
        }
      ],
      "stateMutability": "nonpayable",
      "type": "constructor"
    },
    {
      "anonymous": false,
      "inputs": [
        {
          "indexed": true,
          "internalType": "uint256",
          "name": "auctionId",
          "type": "uint256"
        },
        {
          "indexed": false,
          "internalType": "address",
          "name": "sender",
          "type": "address"
        },
        {
          "indexed": false,
          "internalType": "uint256",
          "name": "amount",
          "type": "uint256"
        },
        {
          "indexed": false,
          "internalType": "bool",
          "name": "extended",
          "type": "bool"
        }
      ],
      "name": "AuctionBidded",
      "type": "event"
    },
    {
      "anonymous": false,
      "inputs": [
        {
          "indexed": true,
          "internalType": "uint256",
          "name": "auctionId",
          "type": "uint256"
        },
        {
          "indexed": false,
          "internalType": "uint256",
          "name": "canceledAt",
          "type": "uint256"
        }
      ],
      "name": "AuctionCanceled",
      "type": "event"
    },
    {
      "anonymous": false,
      "inputs": [
        {
          "indexed": true,
          "internalType": "uint256",
          "name": "auctionId",
          "type": "uint256"
        },
        {
          "indexed": true,
          "internalType": "uint256",
          "name": "tokenId",
          "type": "uint256"
        },
        {
          "indexed": true,
          "internalType": "address",
          "name": "tokenContract",
          "type": "address"
        },
        {
          "indexed": false,
          "internalType": "uint256",
          "name": "startTime",
          "type": "uint256"
        },
        {
          "indexed": false,
          "internalType": "uint256",
          "name": "endTime",
          "type": "uint256"
        },
        {
          "indexed": false,
          "internalType": "uint256",
          "name": "reservePrice",
          "type": "uint256"
        },
        {
          "indexed": false,
          "internalType": "address",
          "name": "seller",
          "type": "address"
        },
        {
          "indexed": false,
          "internalType": "address",
          "name": "auctionCurrency",
          "type": "address"
        }
      ],
      "name": "AuctionCreated",
      "type": "event"
    },
    {
      "anonymous": false,
      "inputs": [
        {
          "indexed": true,
          "internalType": "uint256",
          "name": "auctionId",
          "type": "uint256"
        },
        {
          "indexed": false,
          "internalType": "uint256",
          "name": "newEndTime",
          "type": "uint256"
        },
        {
          "indexed": false,
          "internalType": "uint256",
          "name": "duration",
          "type": "uint256"
        }
      ],
      "name": "AuctionDurationExtended",
      "type": "event"
    },
    {
      "anonymous": false,
      "inputs": [
        {
          "indexed": true,
          "internalType": "uint256",
          "name": "auctionId",
          "type": "uint256"
        },
        {
          "indexed": false,
          "internalType": "address",
          "name": "winner",
          "type": "address"
        },
        {
          "indexed": false,
          "internalType": "uint256",
          "name": "amount",
          "type": "uint256"
        },
        {
          "indexed": false,
          "internalType": "uint256",
          "name": "endedAt",
          "type": "uint256"
        }
      ],
      "name": "AuctionEnded",
      "type": "event"
    },
    {
      "anonymous": false,
      "inputs": [
        {
          "indexed": true,
          "internalType": "uint256",
          "name": "auctionId",
          "type": "uint256"
        },
        {
          "indexed": false,
          "internalType": "uint256",
          "name": "reservePrice",
          "type": "uint256"
        }
      ],
      "name": "AuctionUpdated",
      "type": "event"
    },
    {
      "anonymous": false,
      "inputs": [
        {
          "indexed": true,
          "internalType": "uint256",
          "name": "itemId",
          "type": "uint256"
        },
        {
          "indexed": false,
          "internalType": "uint256",
          "name": "canceledAt",
          "type": "uint256"
        }
      ],
      "name": "BuyNowItemCanceled",
      "type": "event"
    },
    {
      "anonymous": false,
      "inputs": [
        {
          "indexed": true,
          "internalType": "uint256",
          "name": "itemId",
          "type": "uint256"
        },
        {
          "indexed": true,
          "internalType": "uint256",
          "name": "tokenId",
          "type": "uint256"
        },
        {
          "indexed": true,
          "internalType": "address",
          "name": "tokenContract",
          "type": "address"
        },
        {
          "indexed": false,
          "internalType": "uint256",
          "name": "reservePrice",
          "type": "uint256"
        },
        {
          "indexed": false,
          "internalType": "address",
          "name": "seller",
          "type": "address"
        },
        {
          "indexed": false,
          "internalType": "address",
          "name": "currency",
          "type": "address"
        }
      ],
      "name": "BuyNowItemCreated",
      "type": "event"
    },
    {
      "anonymous": false,
      "inputs": [
        {
          "indexed": true,
          "internalType": "uint256",
          "name": "itemId",
          "type": "uint256"
        },
        {
          "indexed": false,
          "internalType": "address",
          "name": "winner",
          "type": "address"
        },
        {
          "indexed": false,
          "internalType": "uint256",
          "name": "purchasedAt",
          "type": "uint256"
        }
      ],
      "name": "BuyNowItemPurchased",
      "type": "event"
    },
    {
      "anonymous": false,
      "inputs": [
        {
          "indexed": true,
          "internalType": "uint256",
          "name": "itemId",
          "type": "uint256"
        },
        {
          "indexed": false,
          "internalType": "uint256",
          "name": "reservePrice",
          "type": "uint256"
        }
      ],
      "name": "BuyNowItemUpdated",
      "type": "event"
    },
    {
      "inputs": [],
      "name": "approveScale",
      "outputs": [
        {
          "internalType": "uint256",
          "name": "",
          "type": "uint256"
        }
      ],
      "stateMutability": "view",
      "type": "function"
    },
    {
      "inputs": [
        {
          "internalType": "uint256",
          "name": "",
          "type": "uint256"
        }
      ],
      "name": "auctions",
      "outputs": [
        {
          "internalType": "address",
          "name": "seller",
          "type": "address"
        },
        {
          "internalType": "uint256",
          "name": "tokenId",
          "type": "uint256"
        },
        {
          "internalType": "address",
          "name": "tokenContract",
          "type": "address"
        },
        {
          "internalType": "address payable",
          "name": "bidder",
          "type": "address"
        },
        {
          "internalType": "uint256",
          "name": "bid",
          "type": "uint256"
        },
        {
          "internalType": "uint256",
          "name": "startTime",
          "type": "uint256"
        },
        {
          "internalType": "uint256",
          "name": "endTime",
          "type": "uint256"
        },
        {
          "internalType": "uint256",
          "name": "reservePrice",
          "type": "uint256"
        },
        {
          "internalType": "address",
          "name": "auctionCurrency",
          "type": "address"
        }
      ],
      "stateMutability": "view",
      "type": "function"
    },
    {
      "inputs": [
        {
          "internalType": "uint256",
          "name": "_id",
          "type": "uint256"
        }
      ],
      "name": "cancelAuction",
      "outputs": [],
      "stateMutability": "nonpayable",
      "type": "function"
    },
    {
      "inputs": [
        {
          "internalType": "uint256",
          "name": "_id",
          "type": "uint256"
        }
      ],
      "name": "cancelItem",
      "outputs": [],
      "stateMutability": "nonpayable",
      "type": "function"
    },
    {
      "inputs": [
        {
          "internalType": "uint256",
          "name": "_tokenId",
          "type": "uint256"
        },
        {
          "internalType": "address",
          "name": "_tokenContract",
          "type": "address"
        },
        {
          "internalType": "uint256",
          "name": "_startTime",
          "type": "uint256"
        },
        {
          "internalType": "uint256",
          "name": "_endTime",
          "type": "uint256"
        },
        {
          "internalType": "uint256",
          "name": "_reservePrice",
          "type": "uint256"
        },
        {
          "internalType": "address",
          "name": "_auctionCurrency",
          "type": "address"
        }
      ],
      "name": "createAuction",
      "outputs": [
        {
          "internalType": "uint256",
          "name": "",
          "type": "uint256"
        }
      ],
      "stateMutability": "nonpayable",
      "type": "function"
    },
    {
      "inputs": [
        {
          "internalType": "uint256",
          "name": "_tokenId",
          "type": "uint256"
        },
        {
          "internalType": "address",
          "name": "_tokenContract",
          "type": "address"
        },
        {
          "internalType": "uint256",
          "name": "_reservePrice",
          "type": "uint256"
        },
        {
          "internalType": "address",
          "name": "_currency",
          "type": "address"
        }
      ],
      "name": "createItem",
      "outputs": [
        {
          "internalType": "uint256",
          "name": "",
          "type": "uint256"
        }
      ],
      "stateMutability": "nonpayable",
      "type": "function"
    },
    {
      "inputs": [
        {
          "internalType": "uint256",
          "name": "_id",
          "type": "uint256"
        }
      ],
      "name": "endAuction",
      "outputs": [],
      "stateMutability": "nonpayable",
      "type": "function"
    },
    {
      "inputs": [],
      "name": "extentionWindow",
      "outputs": [
        {
          "internalType": "uint128",
          "name": "",
          "type": "uint128"
        }
      ],
      "stateMutability": "view",
      "type": "function"
    },
    {
      "inputs": [],
      "name": "getPlatformAccount",
      "outputs": [
        {
          "internalType": "address payable",
          "name": "",
          "type": "address"
        }
      ],
      "stateMutability": "view",
      "type": "function"
    },
    {
      "inputs": [
        {
          "internalType": "uint256",
          "name": "",
          "type": "uint256"
        }
      ],
      "name": "items",
      "outputs": [
        {
          "internalType": "address",
          "name": "seller",
          "type": "address"
        },
        {
          "internalType": "uint256",
          "name": "tokenId",
          "type": "uint256"
        },
        {
          "internalType": "address",
          "name": "tokenContract",
          "type": "address"
        },
        {
          "internalType": "uint256",
          "name": "reservePrice",
          "type": "uint256"
        },
        {
          "internalType": "address",
          "name": "currency",
          "type": "address"
        }
      ],
      "stateMutability": "view",
      "type": "function"
    },
    {
      "inputs": [],
      "name": "minBidIncrementPercentage",
      "outputs": [
        {
          "internalType": "uint128",
          "name": "",
          "type": "uint128"
        }
      ],
      "stateMutability": "view",
      "type": "function"
    },
    {
      "inputs": [],
      "name": "modulo",
      "outputs": [
        {
          "internalType": "uint256",
          "name": "",
          "type": "uint256"
        }
      ],
      "stateMutability": "view",
      "type": "function"
    },
    {
      "inputs": [
        {
          "internalType": "uint256",
          "name": "_id",
          "type": "uint256"
        },
        {
          "internalType": "uint256",
          "name": "_amount",
          "type": "uint256"
        }
      ],
      "name": "placeBid",
      "outputs": [],
      "stateMutability": "payable",
      "type": "function"
    },
    {
      "inputs": [],
      "name": "platformAccount",
      "outputs": [
        {
          "internalType": "address payable",
          "name": "",
          "type": "address"
        }
      ],
      "stateMutability": "view",
      "type": "function"
    },
    {
      "inputs": [
        {
          "internalType": "uint256",
          "name": "_id",
          "type": "uint256"
        }
      ],
      "name": "purchaseItem",
      "outputs": [],
      "stateMutability": "payable",
      "type": "function"
    },
    {
      "inputs": [],
      "name": "roniaAddress",
      "outputs": [
        {
          "internalType": "address",
          "name": "",
          "type": "address"
        }
      ],
      "stateMutability": "view",
      "type": "function"
    },
    {
      "inputs": [],
      "name": "serviceFee",
      "outputs": [
        {
          "internalType": "uint256",
          "name": "",
          "type": "uint256"
        }
      ],
      "stateMutability": "view",
      "type": "function"
    },
    {
      "inputs": [
        {
          "internalType": "address payable",
          "name": "_platformAccount",
          "type": "address"
        }
      ],
      "name": "setPlatformAccount",
      "outputs": [],
      "stateMutability": "nonpayable",
      "type": "function"
    },
    {
      "inputs": [
        {
          "internalType": "uint256",
          "name": "_id",
          "type": "uint256"
        },
        {
          "internalType": "uint256",
          "name": "_reservePrice",
          "type": "uint256"
        }
      ],
      "name": "updateAuction",
      "outputs": [],
      "stateMutability": "nonpayable",
      "type": "function"
    },
    {
      "inputs": [
        {
          "internalType": "uint256",
          "name": "_id",
          "type": "uint256"
        },
        {
          "internalType": "uint256",
          "name": "_reservePrice",
          "type": "uint256"
        }
      ],
      "name": "updateItem",
      "outputs": [],
      "stateMutability": "nonpayable",
      "type": "function"
    }
  ],
  "bytecode": "0x60806040526203d0906001556207a12060025562989680600355610384600660006101000a8154816fffffffffffffffffffffffffffffffff02191690836fffffffffffffffffffffffffffffffff1602179055506207a120600860006101000a8154816fffffffffffffffffffffffffffffffff02191690836fffffffffffffffffffffffffffffffff1602179055503480156200009d57600080fd5b5060405162003c6a38038062003c6a8339818101604052810190620000c391906200012c565b80600160008190555080600560006101000a81548173ffffffffffffffffffffffffffffffffffffffff021916908373ffffffffffffffffffffffffffffffffffffffff1602179055505050620001a6565b60008151905062000126816200018c565b92915050565b6000602082840312156200013f57600080fd5b60006200014f8482850162000115565b91505092915050565b600062000165826200016c565b9050919050565b600073ffffffffffffffffffffffffffffffffffffffff82169050919050565b620001978162000158565b8114620001a357600080fd5b50565b613ab480620001b66000396000f3fe60806040526004361061011f5760003560e01c806396b5a755116100a0578063bfb231d211610064578063bfb231d2146103bc578063c82531a3146103fd578063d38ea5bf1461043a578063e86487d814610456578063f22b0169146104815761011f565b806396b5a755146102eb57806397849eb3146103145780639b6df3ed1461033f578063b296024d14610368578063b9a2de3a146103935761011f565b806357c90de5116100e757806357c90de51461022557806368d8ba28146102415780637917f8dd1461026c578063794c9f22146102955780638abdf5aa146102c05761011f565b806305f0ba701461012457806320ed80e214610161578063297452621461018c57806351563f8e146101b7578063571a26a0146101e0575b600080fd5b34801561013057600080fd5b5061014b60048036038101906101469190612a70565b6104aa565b60405161015891906132fd565b60405180910390f35b34801561016d57600080fd5b50610176610941565b6040516101839190612e7e565b60405180910390f35b34801561019857600080fd5b506101a161096b565b6040516101ae91906132fd565b60405180910390f35b3480156101c357600080fd5b506101de60048036038101906101d99190612a1e565b610971565b005b3480156101ec57600080fd5b5061020760048036038101906102029190612a1e565b610acb565b60405161021c99989796959493929190612f59565b60405180910390f35b61023f600480360381019061023a9190612b5c565b610b99565b005b34801561024d57600080fd5b506102566110f3565b6040516102639190612e63565b60405180910390f35b34801561027857600080fd5b50610293600480360381019061028e91906129cc565b611119565b005b3480156102a157600080fd5b506102aa61115d565b6040516102b791906132fd565b60405180910390f35b3480156102cc57600080fd5b506102d5611163565b6040516102e291906132fd565b60405180910390f35b3480156102f757600080fd5b50610312600480360381019061030d9190612a1e565b611169565b005b34801561032057600080fd5b5061032961130e565b6040516103369190612e7e565b60405180910390f35b34801561034b57600080fd5b5061036660048036038101906103619190612b5c565b611334565b005b34801561037457600080fd5b5061037d6114df565b60405161038a91906132e2565b60405180910390f35b34801561039f57600080fd5b506103ba60048036038101906103b59190612a1e565b611501565b005b3480156103c857600080fd5b506103e360048036038101906103de9190612a1e565b6118e6565b6040516103f4959493929190612fe6565b60405180910390f35b34801561040957600080fd5b50610424600480360381019061041f9190612ad3565b61197c565b60405161043191906132fd565b60405180910390f35b610454600480360381019061044f9190612a1e565b611eb0565b005b34801561046257600080fd5b5061046b61234d565b60405161047891906132e2565b60405180910390f35b34801561048d57600080fd5b506104a860048036038101906104a39190612b5c565b61236f565b005b6000838073ffffffffffffffffffffffffffffffffffffffff166301ffc9a76380ac58cd60e01b6040518263ffffffff1660e01b81526004016104ed91906130a7565b60206040518083038186803b15801561050557600080fd5b505afa158015610519573d6000803e3d6000fd5b505050506040513d601f19601f8201168201806040525081019061053d91906129f5565b61057c576040517f08c379a0000000000000000000000000000000000000000000000000000000008152600401610573906132c2565b60405180910390fd5b848660008273ffffffffffffffffffffffffffffffffffffffff16636352211e836040518263ffffffff1660e01b81526004016105b991906132fd565b60206040518083038186803b1580156105d157600080fd5b505afa1580156105e5573d6000803e3d6000fd5b505050506040513d601f19601f8201168201806040525081019061060991906129a3565b90508073ffffffffffffffffffffffffffffffffffffffff163373ffffffffffffffffffffffffffffffffffffffff1614610679576040517f08c379a000000000000000000000000000000000000000000000000000000000815260040161067090613102565b60405180910390fd5b600260005414156106bf576040517f08c379a00000000000000000000000000000000000000000000000000000000081526004016106b690613222565b60405180910390fd5b600260008190555060008873ffffffffffffffffffffffffffffffffffffffff16636352211e8b6040518263ffffffff1660e01b815260040161070291906132fd565b60206040518083038186803b15801561071a57600080fd5b505afa15801561072e573d6000803e3d6000fd5b505050506040513d601f19601f8201168201806040525081019061075291906129a3565b90506000610760600a61254d565b90506040518060a001604052803373ffffffffffffffffffffffffffffffffffffffff1681526020018c81526020018b73ffffffffffffffffffffffffffffffffffffffff1681526020018a81526020018973ffffffffffffffffffffffffffffffffffffffff16815250600b600083815260200190815260200160002060008201518160000160006101000a81548173ffffffffffffffffffffffffffffffffffffffff021916908373ffffffffffffffffffffffffffffffffffffffff1602179055506020820151816001015560408201518160020160006101000a81548173ffffffffffffffffffffffffffffffffffffffff021916908373ffffffffffffffffffffffffffffffffffffffff1602179055506060820151816003015560808201518160040160006101000a81548173ffffffffffffffffffffffffffffffffffffffff021916908373ffffffffffffffffffffffffffffffffffffffff1602179055509050506108d4600a61255b565b8973ffffffffffffffffffffffffffffffffffffffff168b827f116743b4bb5ea3aa2665cfbde9ff35bfe625444751201ebb519982291a7049898c868d60405161092093929190613318565b60405180910390a48096505050600160008190555050505050949350505050565b6000600560009054906101000a900473ffffffffffffffffffffffffffffffffffffffff16905090565b60035481565b80600073ffffffffffffffffffffffffffffffffffffffff16600b600083815260200190815260200160002060000160009054906101000a900473ffffffffffffffffffffffffffffffffffffffff1673ffffffffffffffffffffffffffffffffffffffff161415610a18576040517f08c379a0000000000000000000000000000000000000000000000000000000008152600401610a0f906130e2565b60405180910390fd5b81600b600082815260200190815260200160002060000160009054906101000a900473ffffffffffffffffffffffffffffffffffffffff1673ffffffffffffffffffffffffffffffffffffffff163373ffffffffffffffffffffffffffffffffffffffff1614610abd576040517f08c379a0000000000000000000000000000000000000000000000000000000008152600401610ab490613282565b60405180910390fd5b610ac683612571565b505050565b60096020528060005260406000206000915090508060000160009054906101000a900473ffffffffffffffffffffffffffffffffffffffff16908060010154908060020160009054906101000a900473ffffffffffffffffffffffffffffffffffffffff16908060030160009054906101000a900473ffffffffffffffffffffffffffffffffffffffff16908060040154908060050154908060060154908060070154908060080160009054906101000a900473ffffffffffffffffffffffffffffffffffffffff16905089565b81600073ffffffffffffffffffffffffffffffffffffffff166009600083815260200190815260200160002060000160009054906101000a900473ffffffffffffffffffffffffffffffffffffffff1673ffffffffffffffffffffffffffffffffffffffff161415610c40576040517f08c379a0000000000000000000000000000000000000000000000000000000008152600401610c3790613182565b60405180910390fd5b60026000541415610c86576040517f08c379a0000000000000000000000000000000000000000000000000000000008152600401610c7d90613222565b60405180910390fd5b600260008190555060006009600085815260200190815260200160002090506000816007015411610cec576040517f08c379a0000000000000000000000000000000000000000000000000000000008152600401610ce390613142565b60405180910390fd5b8060050154421015610d33576040517f08c379a0000000000000000000000000000000000000000000000000000000008152600401610d2a906132a2565b60405180910390fd5b80600601544210610d79576040517f08c379a0000000000000000000000000000000000000000000000000000000008152600401610d7090613242565b60405180910390fd5b8060070154831015610dc0576040517f08c379a0000000000000000000000000000000000000000000000000000000008152600401610db790613142565b60405180910390fd5b610e31610e1e600354610e10600860009054906101000a90046fffffffffffffffffffffffffffffffff166fffffffffffffffffffffffffffffffff16856004015461264790919063ffffffff16565b61265d90919063ffffffff16565b826004015461267390919063ffffffff16565b831015610e73576040517f08c379a0000000000000000000000000000000000000000000000000000000008152600401610e6a906131c2565b60405180910390fd5b828160080160009054906101000a900473ffffffffffffffffffffffffffffffffffffffff1673ffffffffffffffffffffffffffffffffffffffff1663dd62ed3e33306040518363ffffffff1660e01b8152600401610ed3929190612ed0565b60206040518083038186803b158015610eeb57600080fd5b505afa158015610eff573d6000803e3d6000fd5b505050506040513d601f19601f82011682018060405250810190610f239190612a47565b1015610f64576040517f08c379a0000000000000000000000000000000000000000000000000000000008152600401610f5b906130c2565b60405180910390fd5b828160040181905550338160030160006101000a81548173ffffffffffffffffffffffffffffffffffffffff021916908373ffffffffffffffffffffffffffffffffffffffff1602179055506000600660009054906101000a90046fffffffffffffffffffffffffffffffff166fffffffffffffffffffffffffffffffff16428360060154610ff391906134bd565b1161104557600660009054906101000a90046fffffffffffffffffffffffffffffffff166fffffffffffffffffffffffffffffffff16826006015461103891906133dc565b8260060181905550600190505b847fa0927ccb755dfca6139812b5aac8cc0086384d5f796fe703a7f4118994921e2d33868460405161107993929190613039565b60405180910390a280156110e457847f0e7fbdf616af9cd1fb7c231de425c040aab35e434b6f4ac091b8c7c1aa044c818360060154600660009054906101000a90046fffffffffffffffffffffffffffffffff166040516110db92919061334f565b60405180910390a25b50506001600081905550505050565b600460009054906101000a900473ffffffffffffffffffffffffffffffffffffffff1681565b80600560006101000a81548173ffffffffffffffffffffffffffffffffffffffff021916908373ffffffffffffffffffffffffffffffffffffffff16021790555050565b60025481565b60015481565b80600073ffffffffffffffffffffffffffffffffffffffff166009600083815260200190815260200160002060000160009054906101000a900473ffffffffffffffffffffffffffffffffffffffff1673ffffffffffffffffffffffffffffffffffffffff161415611210576040517f08c379a000000000000000000000000000000000000000000000000000000000815260040161120790613182565b60405180910390fd5b60006009600084815260200190815260200160002090503373ffffffffffffffffffffffffffffffffffffffff168160000160009054906101000a900473ffffffffffffffffffffffffffffffffffffffff1673ffffffffffffffffffffffffffffffffffffffff16146112b9576040517f08c379a00000000000000000000000000000000000000000000000000000000081526004016112b090613122565b60405180910390fd5b6000816004015414611300576040517f08c379a00000000000000000000000000000000000000000000000000000000081526004016112f790613262565b60405180910390fd5b61130983612689565b505050565b600560009054906101000a900473ffffffffffffffffffffffffffffffffffffffff1681565b81600073ffffffffffffffffffffffffffffffffffffffff16600b600083815260200190815260200160002060000160009054906101000a900473ffffffffffffffffffffffffffffffffffffffff1673ffffffffffffffffffffffffffffffffffffffff1614156113db576040517f08c379a00000000000000000000000000000000000000000000000000000000081526004016113d2906130e2565b60405180910390fd5b82600b600082815260200190815260200160002060000160009054906101000a900473ffffffffffffffffffffffffffffffffffffffff1673ffffffffffffffffffffffffffffffffffffffff163373ffffffffffffffffffffffffffffffffffffffff1614611480576040517f08c379a000000000000000000000000000000000000000000000000000000000815260040161147790613282565b60405180910390fd5b6000600b60008681526020019081526020016000209050838160030181905550847fad87ea0f66aa8d62dd396e269dd58e6954ac86f5e9e21d49576cd60d91357a60856040516114d091906132fd565b60405180910390a25050505050565b600860009054906101000a90046fffffffffffffffffffffffffffffffff1681565b80600073ffffffffffffffffffffffffffffffffffffffff166009600083815260200190815260200160002060000160009054906101000a900473ffffffffffffffffffffffffffffffffffffffff1673ffffffffffffffffffffffffffffffffffffffff1614156115a8576040517f08c379a000000000000000000000000000000000000000000000000000000000815260040161159f90613182565b60405180910390fd5b600260005414156115ee576040517f08c379a00000000000000000000000000000000000000000000000000000000081526004016115e590613222565b60405180910390fd5b6002600081905550600060096000848152602001908152602001600020905042816006015410611653576040517f08c379a000000000000000000000000000000000000000000000000000000000815260040161164a90613202565b60405180910390fd5b600081600401541161169a576040517f08c379a000000000000000000000000000000000000000000000000000000000815260040161169190613162565b60405180910390fd5b60008160030160009054906101000a900473ffffffffffffffffffffffffffffffffffffffff16905060008260000160009054906101000a900473ffffffffffffffffffffffffffffffffffffffff1690506000836004015490508360020160009054906101000a900473ffffffffffffffffffffffffffffffffffffffff1673ffffffffffffffffffffffffffffffffffffffff166342842e0e838587600101546040518463ffffffff1660e01b815260040161175a93929190612ef9565b600060405180830381600087803b15801561177457600080fd5b505af1158015611788573d6000803e3d6000fd5b505050506117c0838386600401548760080160009054906101000a900473ffffffffffffffffffffffffffffffffffffffff1661279e565b60096000878152602001908152602001600020600080820160006101000a81549073ffffffffffffffffffffffffffffffffffffffff021916905560018201600090556002820160006101000a81549073ffffffffffffffffffffffffffffffffffffffff02191690556003820160006101000a81549073ffffffffffffffffffffffffffffffffffffffff021916905560048201600090556005820160009055600682016000905560078201600090556008820160006101000a81549073ffffffffffffffffffffffffffffffffffffffff02191690555050857fe9ba83469fc8ee4260dd274fd43b5a54f2df813ad21c4637d53084d1f3866b378483426040516118ce93929190613070565b60405180910390a25050505060016000819055505050565b600b6020528060005260406000206000915090508060000160009054906101000a900473ffffffffffffffffffffffffffffffffffffffff16908060010154908060020160009054906101000a900473ffffffffffffffffffffffffffffffffffffffff16908060030154908060040160009054906101000a900473ffffffffffffffffffffffffffffffffffffffff16905085565b6000858073ffffffffffffffffffffffffffffffffffffffff166301ffc9a76380ac58cd60e01b6040518263ffffffff1660e01b81526004016119bf91906130a7565b60206040518083038186803b1580156119d757600080fd5b505afa1580156119eb573d6000803e3d6000fd5b505050506040513d601f19601f82011682018060405250810190611a0f91906129f5565b611a4e576040517f08c379a0000000000000000000000000000000000000000000000000000000008152600401611a45906132c2565b60405180910390fd5b868860008273ffffffffffffffffffffffffffffffffffffffff16636352211e836040518263ffffffff1660e01b8152600401611a8b91906132fd565b60206040518083038186803b158015611aa357600080fd5b505afa158015611ab7573d6000803e3d6000fd5b505050506040513d601f19601f82011682018060405250810190611adb91906129a3565b90508073ffffffffffffffffffffffffffffffffffffffff163373ffffffffffffffffffffffffffffffffffffffff1614611b4b576040517f08c379a0000000000000000000000000000000000000000000000000000000008152600401611b4290613102565b60405180910390fd5b60026000541415611b91576040517f08c379a0000000000000000000000000000000000000000000000000000000008152600401611b8890613222565b60405180910390fd5b600260008190555060008a73ffffffffffffffffffffffffffffffffffffffff16636352211e8d6040518263ffffffff1660e01b8152600401611bd491906132fd565b60206040518083038186803b158015611bec57600080fd5b505afa158015611c00573d6000803e3d6000fd5b505050506040513d601f19601f82011682018060405250810190611c2491906129a3565b90506000611c32600761254d565b90506040518061012001604052803373ffffffffffffffffffffffffffffffffffffffff1681526020018e81526020018d73ffffffffffffffffffffffffffffffffffffffff168152602001600073ffffffffffffffffffffffffffffffffffffffff168152602001600081526020018c81526020018b81526020018a81526020018973ffffffffffffffffffffffffffffffffffffffff168152506009600083815260200190815260200160002060008201518160000160006101000a81548173ffffffffffffffffffffffffffffffffffffffff021916908373ffffffffffffffffffffffffffffffffffffffff1602179055506020820151816001015560408201518160020160006101000a81548173ffffffffffffffffffffffffffffffffffffffff021916908373ffffffffffffffffffffffffffffffffffffffff16021790555060608201518160030160006101000a81548173ffffffffffffffffffffffffffffffffffffffff021916908373ffffffffffffffffffffffffffffffffffffffff1602179055506080820151816004015560a0820151816005015560c0820151816006015560e082015181600701556101008201518160080160006101000a81548173ffffffffffffffffffffffffffffffffffffffff021916908373ffffffffffffffffffffffffffffffffffffffff160217905550905050611e3d600761255b565b8b73ffffffffffffffffffffffffffffffffffffffff168d827fb49e4eb6b92fa74bad742ffd78dac1125623d2a3080824b533e10a255d3b10e18e8e8e888f604051611e8d959493929190613378565b60405180910390a480965050506001600081905550505050509695505050505050565b80600073ffffffffffffffffffffffffffffffffffffffff16600b600083815260200190815260200160002060000160009054906101000a900473ffffffffffffffffffffffffffffffffffffffff1673ffffffffffffffffffffffffffffffffffffffff161415611f57576040517f08c379a0000000000000000000000000000000000000000000000000000000008152600401611f4e906130e2565b60405180910390fd5b81600b600082815260200190815260200160002060000160009054906101000a900473ffffffffffffffffffffffffffffffffffffffff1673ffffffffffffffffffffffffffffffffffffffff163373ffffffffffffffffffffffffffffffffffffffff161415611ffd576040517f08c379a0000000000000000000000000000000000000000000000000000000008152600401611ff4906131e2565b60405180910390fd5b60026000541415612043576040517f08c379a000000000000000000000000000000000000000000000000000000000815260040161203a90613222565b60405180910390fd5b60026000819055506000600b6000858152602001908152602001600020905080600301548160040160009054906101000a900473ffffffffffffffffffffffffffffffffffffffff1673ffffffffffffffffffffffffffffffffffffffff1663dd62ed3e33306040518363ffffffff1660e01b81526004016120c6929190612ed0565b60206040518083038186803b1580156120de57600080fd5b505afa1580156120f2573d6000803e3d6000fd5b505050506040513d601f19601f820116820180604052508101906121169190612a47565b1015612157576040517f08c379a000000000000000000000000000000000000000000000000000000000815260040161214e906130c2565b60405180910390fd5b8060020160009054906101000a900473ffffffffffffffffffffffffffffffffffffffff1673ffffffffffffffffffffffffffffffffffffffff166342842e0e8260000160009054906101000a900473ffffffffffffffffffffffffffffffffffffffff163384600101546040518463ffffffff1660e01b81526004016121e093929190612ef9565b600060405180830381600087803b1580156121fa57600080fd5b505af115801561220e573d6000803e3d6000fd5b5050505061226a338260000160009054906101000a900473ffffffffffffffffffffffffffffffffffffffff1683600301548460040160009054906101000a900473ffffffffffffffffffffffffffffffffffffffff1661279e565b600b6000858152602001908152602001600020600080820160006101000a81549073ffffffffffffffffffffffffffffffffffffffff021916905560018201600090556002820160006101000a81549073ffffffffffffffffffffffffffffffffffffffff021916905560038201600090556004820160006101000a81549073ffffffffffffffffffffffffffffffffffffffff02191690555050837fd0526edc71ee5d16492aea76042623040abdda92437a8c9bc92642a055abde9c3342604051612337929190612f30565b60405180910390a2506001600081905550505050565b600660009054906101000a90046fffffffffffffffffffffffffffffffff1681565b81600073ffffffffffffffffffffffffffffffffffffffff166009600083815260200190815260200160002060000160009054906101000a900473ffffffffffffffffffffffffffffffffffffffff1673ffffffffffffffffffffffffffffffffffffffff161415612416576040517f08c379a000000000000000000000000000000000000000000000000000000000815260040161240d90613182565b60405180910390fd5b60006009600085815260200190815260200160002090508060000160009054906101000a900473ffffffffffffffffffffffffffffffffffffffff1673ffffffffffffffffffffffffffffffffffffffff163373ffffffffffffffffffffffffffffffffffffffff16146124bf576040517f08c379a00000000000000000000000000000000000000000000000000000000081526004016124b6906131a2565b60405180910390fd5b6000816004015414612506576040517f08c379a00000000000000000000000000000000000000000000000000000000081526004016124fd90613262565b60405180910390fd5b828160070181905550837f95f83d4dfba2e4f3f99527a8e8a18980457125d95df460c1601811c0c961528f8460405161253f91906132fd565b60405180910390a250505050565b600081600001549050919050565b6001816000016000828254019250508190555050565b807f59bdf78925e374206fbc78950a20f41bf461aa2ccb2eabe32cf51d8d4d5a14d7426040516125a191906132fd565b60405180910390a2600b6000828152602001908152602001600020600080820160006101000a81549073ffffffffffffffffffffffffffffffffffffffff021916905560018201600090556002820160006101000a81549073ffffffffffffffffffffffffffffffffffffffff021916905560038201600090556004820160006101000a81549073ffffffffffffffffffffffffffffffffffffffff0219169055505050565b600081836126559190613463565b905092915050565b6000818361266b9190613432565b905092915050565b6000818361268191906133dc565b905092915050565b807fe933b4aae08ab9bd538fc4c8f819965cfc818a17985d76a5b9d706b24c032c4e426040516126b991906132fd565b60405180910390a260096000828152602001908152602001600020600080820160006101000a81549073ffffffffffffffffffffffffffffffffffffffff021916905560018201600090556002820160006101000a81549073ffffffffffffffffffffffffffffffffffffffff02191690556003820160006101000a81549073ffffffffffffffffffffffffffffffffffffffff021916905560048201600090556005820160009055600682016000905560078201600090556008820160006101000a81549073ffffffffffffffffffffffffffffffffffffffff0219169055505050565b60006127c96001546127bb6003548661265d90919063ffffffff16565b61264790919063ffffffff16565b9050600081846127d991906134bd565b90508273ffffffffffffffffffffffffffffffffffffffff166323b872dd87600560009054906101000a900473ffffffffffffffffffffffffffffffffffffffff16856040518463ffffffff1660e01b815260040161283a93929190612e99565b602060405180830381600087803b15801561285457600080fd5b505af1158015612868573d6000803e3d6000fd5b505050506040513d601f19601f8201168201806040525081019061288c91906129f5565b508273ffffffffffffffffffffffffffffffffffffffff166323b872dd8787846040518463ffffffff1660e01b81526004016128ca93929190612e99565b602060405180830381600087803b1580156128e457600080fd5b505af11580156128f8573d6000803e3d6000fd5b505050506040513d601f19601f8201168201806040525081019061291c91906129f5565b50505050505050565b60008135905061293481613a22565b92915050565b60008151905061294981613a22565b92915050565b60008135905061295e81613a39565b92915050565b60008151905061297381613a50565b92915050565b60008135905061298881613a67565b92915050565b60008151905061299d81613a67565b92915050565b6000602082840312156129b557600080fd5b60006129c38482850161293a565b91505092915050565b6000602082840312156129de57600080fd5b60006129ec8482850161294f565b91505092915050565b600060208284031215612a0757600080fd5b6000612a1584828501612964565b91505092915050565b600060208284031215612a3057600080fd5b6000612a3e84828501612979565b91505092915050565b600060208284031215612a5957600080fd5b6000612a678482850161298e565b91505092915050565b60008060008060808587031215612a8657600080fd5b6000612a9487828801612979565b9450506020612aa587828801612925565b9350506040612ab687828801612979565b9250506060612ac787828801612925565b91505092959194509250565b60008060008060008060c08789031215612aec57600080fd5b6000612afa89828a01612979565b9650506020612b0b89828a01612925565b9550506040612b1c89828a01612979565b9450506060612b2d89828a01612979565b9350506080612b3e89828a01612979565b92505060a0612b4f89828a01612925565b9150509295509295509295565b60008060408385031215612b6f57600080fd5b6000612b7d85828601612979565b9250506020612b8e85828601612979565b9150509250929050565b612ba181613593565b82525050565b612bb081613503565b82525050565b612bbf816134f1565b82525050565b612bce81613515565b82525050565b612bdd81613521565b82525050565b6000612bf0602b836133cb565b9150612bfb82613639565b604082019050919050565b6000612c136027836133cb565b9150612c1e82613688565b604082019050919050565b6000612c366021836133cb565b9150612c41826136d7565b604082019050919050565b6000612c596025836133cb565b9150612c6482613726565b604082019050919050565b6000612c7c601f836133cb565b9150612c8782613775565b602082019050919050565b6000612c9f6032836133cb565b9150612caa8261379e565b604082019050919050565b6000612cc26021836133cb565b9150612ccd826137ed565b604082019050919050565b6000612ce56017836133cb565b9150612cf08261383c565b602082019050919050565b6000612d086040836133cb565b9150612d1382613865565b604082019050919050565b6000612d2b6018836133cb565b9150612d36826138b4565b602082019050919050565b6000612d4e6018836133cb565b9150612d59826138dd565b602082019050919050565b6000612d71601f836133cb565b9150612d7c82613906565b602082019050919050565b6000612d94600f836133cb565b9150612d9f8261392f565b602082019050919050565b6000612db76014836133cb565b9150612dc282613958565b602082019050919050565b6000612dda6014836133cb565b9150612de582613981565b602082019050919050565b6000612dfd6017836133cb565b9150612e08826139aa565b602082019050919050565b6000612e20602f836133cb565b9150612e2b826139d3565b604082019050919050565b612e3f8161354d565b82525050565b612e4e816135a5565b82525050565b612e5d81613589565b82525050565b6000602082019050612e786000830184612bb6565b92915050565b6000602082019050612e936000830184612ba7565b92915050565b6000606082019050612eae6000830186612b98565b612ebb6020830185612b98565b612ec86040830184612e54565b949350505050565b6000604082019050612ee56000830185612bb6565b612ef26020830184612bb6565b9392505050565b6000606082019050612f0e6000830186612bb6565b612f1b6020830185612bb6565b612f286040830184612e54565b949350505050565b6000604082019050612f456000830185612bb6565b612f526020830184612e54565b9392505050565b600061012082019050612f6f600083018c612bb6565b612f7c602083018b612e54565b612f89604083018a612bb6565b612f966060830189612ba7565b612fa36080830188612e54565b612fb060a0830187612e54565b612fbd60c0830186612e54565b612fca60e0830185612e54565b612fd8610100830184612bb6565b9a9950505050505050505050565b600060a082019050612ffb6000830188612bb6565b6130086020830187612e54565b6130156040830186612bb6565b6130226060830185612e54565b61302f6080830184612bb6565b9695505050505050565b600060608201905061304e6000830186612bb6565b61305b6020830185612e54565b6130686040830184612bc5565b949350505050565b60006060820190506130856000830186612bb6565b6130926020830185612e54565b61309f6040830184612e54565b949350505050565b60006020820190506130bc6000830184612bd4565b92915050565b600060208201905081810360008301526130db81612be3565b9050919050565b600060208201905081810360008301526130fb81612c06565b9050919050565b6000602082019050818103600083015261311b81612c29565b9050919050565b6000602082019050818103600083015261313b81612c4c565b9050919050565b6000602082019050818103600083015261315b81612c6f565b9050919050565b6000602082019050818103600083015261317b81612c92565b9050919050565b6000602082019050818103600083015261319b81612cb5565b9050919050565b600060208201905081810360008301526131bb81612cd8565b9050919050565b600060208201905081810360008301526131db81612cfb565b9050919050565b600060208201905081810360008301526131fb81612d1e565b9050919050565b6000602082019050818103600083015261321b81612d41565b9050919050565b6000602082019050818103600083015261323b81612d64565b9050919050565b6000602082019050818103600083015261325b81612d87565b9050919050565b6000602082019050818103600083015261327b81612daa565b9050919050565b6000602082019050818103600083015261329b81612dcd565b9050919050565b600060208201905081810360008301526132bb81612df0565b9050919050565b600060208201905081810360008301526132db81612e13565b9050919050565b60006020820190506132f76000830184612e36565b92915050565b60006020820190506133126000830184612e54565b92915050565b600060608201905061332d6000830186612e54565b61333a6020830185612bb6565b6133476040830184612bb6565b949350505050565b60006040820190506133646000830185612e54565b6133716020830184612e45565b9392505050565b600060a08201905061338d6000830188612e54565b61339a6020830187612e54565b6133a76040830186612e54565b6133b46060830185612bb6565b6133c16080830184612bb6565b9695505050505050565b600082825260208201905092915050565b60006133e782613589565b91506133f283613589565b9250827fffffffffffffffffffffffffffffffffffffffffffffffffffffffffffffffff03821115613427576134266135db565b5b828201905092915050565b600061343d82613589565b915061344883613589565b9250826134585761345761360a565b5b828204905092915050565b600061346e82613589565b915061347983613589565b9250817fffffffffffffffffffffffffffffffffffffffffffffffffffffffffffffffff04831182151516156134b2576134b16135db565b5b828202905092915050565b60006134c882613589565b91506134d383613589565b9250828210156134e6576134e56135db565b5b828203905092915050565b60006134fc82613569565b9050919050565b600061350e82613569565b9050919050565b60008115159050919050565b60007fffffffff0000000000000000000000000000000000000000000000000000000082169050919050565b60006fffffffffffffffffffffffffffffffff82169050919050565b600073ffffffffffffffffffffffffffffffffffffffff82169050919050565b6000819050919050565b600061359e826135b7565b9050919050565b60006135b08261354d565b9050919050565b60006135c2826135c9565b9050919050565b60006135d482613569565b9050919050565b7f4e487b7100000000000000000000000000000000000000000000000000000000600052601160045260246000fd5b7f4e487b7100000000000000000000000000000000000000000000000000000000600052601260045260246000fd5b7f4269646465722053686f756c6420617070726f7665206d61726b657420666f7260008201527f2062696420616d6f756e74000000000000000000000000000000000000000000602082015250565b7f4974656d206973206e6f74206578697374206f7220616c72656164792070757260008201527f6368617365642100000000000000000000000000000000000000000000000000602082015250565b7f43616c6c6572206d757374206265206f776e657220666f7220746f6b656e206960008201527f6400000000000000000000000000000000000000000000000000000000000000602082015250565b7f43616e206f6e6c792062652063616c6c65642062792061756374696f6e20637260008201527f6561746f72000000000000000000000000000000000000000000000000000000602082015250565b7f4d7573742073656e64206174206c656173742072657365727665507269636500600082015250565b7f41756374696f6e20686173206e6f206269646465722c20796f752063616e206360008201527f616e63656c207468652041756374696f6e2e0000000000000000000000000000602082015250565b7f41756374696f6e206973206e6f74206578697374206f722066696e697368656460008201527f2100000000000000000000000000000000000000000000000000000000000000602082015250565b7f4d7573742062652061756374696f6e2063726561746f72000000000000000000600082015250565b7f4d7573742073656e64206d6f7265207468616e206c617374206269642062792060008201527f6d696e426964496e6372656d656e7450657263656e7461676520616d6f756e74602082015250565b7f4d757374206e6f74206265204974656d2063726561746f720000000000000000600082015250565b7f41756374696f6e206861736e277420636f6d706c657465640000000000000000600082015250565b7f5265656e7472616e637947756172643a207265656e7472616e742063616c6c00600082015250565b7f41756374696f6e20657870697265640000000000000000000000000000000000600082015250565b7f41756374696f6e20686173206120626964646572000000000000000000000000600082015250565b7f4d757374206265204974656d2063726561746f72000000000000000000000000600082015250565b7f41756374696f6e206e6f74207374617274656420796574000000000000000000600082015250565b7f746f6b656e436f6e747261637420646f6573206e6f7420737570706f7274204560008201527f524337323120696e746572666163650000000000000000000000000000000000602082015250565b613a2b816134f1565b8114613a3657600080fd5b50565b613a4281613503565b8114613a4d57600080fd5b50565b613a5981613515565b8114613a6457600080fd5b50565b613a7081613589565b8114613a7b57600080fd5b5056fea2646970667358221220e0d493be0339d4e607d2c2a25bdf32ecb3128ea73978b14ce3632b58f5e7d28c64736f6c63430008040033",
  "linkReferences": {},
  "deployedLinkReferences": {}
}