{
    "_format": "hh-sol-artifact-1",
    "contractName": "NFTMarket",
    "sourceName": "contracts/NFTMarket.sol",
    "abi": [
        {
            "inputs": [],
            "stateMutability": "nonpayable",
            "type": "constructor"
        },
        {
            "anonymous": false,
            "inputs": [
                {
                    "indexed": true,
                    "internalType": "uint256",
                    "name": "itemId",
                    "type": "uint256"
                },
                {
                    "indexed": true,
                    "internalType": "address",
                    "name": "nftContract",
                    "type": "address"
                },
                {
                    "indexed": true,
                    "internalType": "uint256",
                    "name": "tokenId",
                    "type": "uint256"
                },
                {
                    "indexed": false,
                    "internalType": "address payable",
                    "name": "seller",
                    "type": "address"
                },
                {
                    "indexed": false,
                    "internalType": "address payable",
                    "name": "owner",
                    "type": "address"
                },
                {
                    "indexed": false,
                    "internalType": "uint256",
                    "name": "price",
                    "type": "uint256"
                },
                {
                    "indexed": false,
                    "internalType": "bool",
                    "name": "sold",
                    "type": "bool"
                }
            ],
            "name": "MarketItemCreated",
            "type": "event"
        },
        {
            "anonymous": false,
            "inputs": [
                {
                    "indexed": true,
                    "internalType": "uint256",
                    "name": "itemId",
                    "type": "uint256"
                },
                {
                    "indexed": true,
                    "internalType": "address",
                    "name": "nftContract",
                    "type": "address"
                },
                {
                    "indexed": true,
                    "internalType": "uint256",
                    "name": "tokenId",
                    "type": "uint256"
                },
                {
                    "indexed": false,
                    "internalType": "address payable",
                    "name": "seller",
                    "type": "address"
                },
                {
                    "indexed": false,
                    "internalType": "address payable",
                    "name": "buyer",
                    "type": "address"
                },
                {
                    "indexed": false,
                    "internalType": "uint256",
                    "name": "price",
                    "type": "uint256"
                },
                {
                    "indexed": false,
                    "internalType": "bool",
                    "name": "sold",
                    "type": "bool"
                }
            ],
            "name": "MarketItemSoled",
            "type": "event"
        },
        {
            "inputs": [
                {
                    "internalType": "address",
                    "name": "nftContract",
                    "type": "address"
                },
                {
                    "internalType": "uint256",
                    "name": "tokenId",
                    "type": "uint256"
                },
                {
                    "internalType": "uint256",
                    "name": "price",
                    "type": "uint256"
                }
            ],
            "name": "createMarketItem",
            "outputs": [],
            "stateMutability": "payable",
            "type": "function"
        },
        {
            "inputs": [
                {
                    "internalType": "address",
                    "name": "nftContract",
                    "type": "address"
                },
                {
                    "internalType": "uint256",
                    "name": "itemId",
                    "type": "uint256"
                }
            ],
            "name": "createMarketSale",
            "outputs": [],
            "stateMutability": "payable",
            "type": "function"
        },
        {
            "inputs": [],
            "name": "fetchItemsCreated",
            "outputs": [
                {
                    "components": [
                        {
                            "internalType": "uint256",
                            "name": "itemId",
                            "type": "uint256"
                        },
                        {
                            "internalType": "address",
                            "name": "nftContract",
                            "type": "address"
                        },
                        {
                            "internalType": "uint256",
                            "name": "tokenId",
                            "type": "uint256"
                        },
                        {
                            "internalType": "address payable",
                            "name": "seller",
                            "type": "address"
                        },
                        {
                            "internalType": "address payable",
                            "name": "owner",
                            "type": "address"
                        },
                        {
                            "internalType": "uint256",
                            "name": "price",
                            "type": "uint256"
                        },
                        {
                            "internalType": "bool",
                            "name": "sold",
                            "type": "bool"
                        }
                    ],
                    "internalType": "struct NFTMarket.MarketItem[]",
                    "name": "",
                    "type": "tuple[]"
                }
            ],
            "stateMutability": "view",
            "type": "function"
        },
        {
            "inputs": [],
            "name": "fetchMarketItems",
            "outputs": [
                {
                    "components": [
                        {
                            "internalType": "uint256",
                            "name": "itemId",
                            "type": "uint256"
                        },
                        {
                            "internalType": "address",
                            "name": "nftContract",
                            "type": "address"
                        },
                        {
                            "internalType": "uint256",
                            "name": "tokenId",
                            "type": "uint256"
                        },
                        {
                            "internalType": "address payable",
                            "name": "seller",
                            "type": "address"
                        },
                        {
                            "internalType": "address payable",
                            "name": "owner",
                            "type": "address"
                        },
                        {
                            "internalType": "uint256",
                            "name": "price",
                            "type": "uint256"
                        },
                        {
                            "internalType": "bool",
                            "name": "sold",
                            "type": "bool"
                        }
                    ],
                    "internalType": "struct NFTMarket.MarketItem[]",
                    "name": "",
                    "type": "tuple[]"
                }
            ],
            "stateMutability": "view",
            "type": "function"
        },
        {
            "inputs": [],
            "name": "fetchMyNFTs",
            "outputs": [
                {
                    "components": [
                        {
                            "internalType": "uint256",
                            "name": "itemId",
                            "type": "uint256"
                        },
                        {
                            "internalType": "address",
                            "name": "nftContract",
                            "type": "address"
                        },
                        {
                            "internalType": "uint256",
                            "name": "tokenId",
                            "type": "uint256"
                        },
                        {
                            "internalType": "address payable",
                            "name": "seller",
                            "type": "address"
                        },
                        {
                            "internalType": "address payable",
                            "name": "owner",
                            "type": "address"
                        },
                        {
                            "internalType": "uint256",
                            "name": "price",
                            "type": "uint256"
                        },
                        {
                            "internalType": "bool",
                            "name": "sold",
                            "type": "bool"
                        }
                    ],
                    "internalType": "struct NFTMarket.MarketItem[]",
                    "name": "",
                    "type": "tuple[]"
                }
            ],
            "stateMutability": "view",
            "type": "function"
        },
        {
            "inputs": [],
            "name": "getListingPrice",
            "outputs": [
                {
                    "internalType": "uint256",
                    "name": "",
                    "type": "uint256"
                }
            ],
            "stateMutability": "view",
            "type": "function"
        }
    ],
    "bytecode": "0x60806040526658d15e1762800060045534801561001b57600080fd5b50600160008190555033600360006101000a81548173ffffffffffffffffffffffffffffffffffffffff021916908373ffffffffffffffffffffffffffffffffffffffff1602179055506119fd806100746000396000f3fe6080604052600436106100555760003560e01c80630f08efe01461005a57806312e8558514610085578063202e3740146100b057806358eb2df5146100db578063c23b139e146100f7578063f064c32e14610113575b600080fd5b34801561006657600080fd5b5061006f61013e565b60405161007c9190611646565b60405180910390f35b34801561009157600080fd5b5061009a61046a565b6040516100a791906116e8565b60405180910390f35b3480156100bc57600080fd5b506100c5610474565b6040516100d29190611646565b60405180910390f35b6100f560048036038101906100f09190611373565b610823565b005b610111600480360381019061010c9190611337565b610b87565b005b34801561011f57600080fd5b50610128610eb9565b6040516101359190611646565b60405180910390f35b6060600061014c6001611268565b9050600061015a6002611268565b6101646001611268565b61016e91906117a3565b90506000808267ffffffffffffffff8111156101b3577f4e487b7100000000000000000000000000000000000000000000000000000000600052604160045260246000fd5b6040519080825280602002602001820160405280156101ec57816020015b6101d961128c565b8152602001906001900390816101d15790505b50905060005b8481101561045f57600073ffffffffffffffffffffffffffffffffffffffff1660056000600184610223919061174d565b815260200190815260200160002060040160009054906101000a900473ffffffffffffffffffffffffffffffffffffffff1673ffffffffffffffffffffffffffffffffffffffff16141561044c57600060056000600184610284919061174d565b81526020019081526020016000206000015490506000600560008381526020019081526020016000209050806040518060e0016040529081600082015481526020016001820160009054906101000a900473ffffffffffffffffffffffffffffffffffffffff1673ffffffffffffffffffffffffffffffffffffffff1673ffffffffffffffffffffffffffffffffffffffff168152602001600282015481526020016003820160009054906101000a900473ffffffffffffffffffffffffffffffffffffffff1673ffffffffffffffffffffffffffffffffffffffff1673ffffffffffffffffffffffffffffffffffffffff1681526020016004820160009054906101000a900473ffffffffffffffffffffffffffffffffffffffff1673ffffffffffffffffffffffffffffffffffffffff1673ffffffffffffffffffffffffffffffffffffffff168152602001600582015481526020016006820160009054906101000a900460ff16151515158152505084868151811061042f577f4e487b7100000000000000000000000000000000000000000000000000000000600052603260045260246000fd5b6020026020010181905250600185610447919061174d565b945050505b808061045790611831565b9150506101f2565b508094505050505090565b6000600454905090565b606060006104826001611268565b905060008060005b8281101561052a573373ffffffffffffffffffffffffffffffffffffffff16600560006001846104ba919061174d565b815260200190815260200160002060040160009054906101000a900473ffffffffffffffffffffffffffffffffffffffff1673ffffffffffffffffffffffffffffffffffffffff16141561051757828061051390611831565b9350505b808061052290611831565b91505061048a565b5060008267ffffffffffffffff81111561056d577f4e487b7100000000000000000000000000000000000000000000000000000000600052604160045260246000fd5b6040519080825280602002602001820160405280156105a657816020015b61059361128c565b81526020019060019003908161058b5790505b50905060005b84811015610818573373ffffffffffffffffffffffffffffffffffffffff16600560006001846105dc919061174d565b815260200190815260200160002060040160009054906101000a900473ffffffffffffffffffffffffffffffffffffffff1673ffffffffffffffffffffffffffffffffffffffff1614156108055760006005600060018461063d919061174d565b81526020019081526020016000206000015490506000600560008381526020019081526020016000209050806040518060e0016040529081600082015481526020016001820160009054906101000a900473ffffffffffffffffffffffffffffffffffffffff1673ffffffffffffffffffffffffffffffffffffffff1673ffffffffffffffffffffffffffffffffffffffff168152602001600282015481526020016003820160009054906101000a900473ffffffffffffffffffffffffffffffffffffffff1673ffffffffffffffffffffffffffffffffffffffff1673ffffffffffffffffffffffffffffffffffffffff1681526020016004820160009054906101000a900473ffffffffffffffffffffffffffffffffffffffff1673ffffffffffffffffffffffffffffffffffffffff1673ffffffffffffffffffffffffffffffffffffffff168152602001600582015481526020016006820160009054906101000a900460ff1615151515815250508486815181106107e8577f4e487b7100000000000000000000000000000000000000000000000000000000600052603260045260246000fd5b6020026020010181905250600185610800919061174d565b945050505b808061081090611831565b9150506105ac565b508094505050505090565b60026000541415610869576040517f08c379a0000000000000000000000000000000000000000000000000000000008152600401610860906116a8565b60405180910390fd5b6002600081905550600081116108b4576040517f08c379a00000000000000000000000000000000000000000000000000000000081526004016108ab906116c8565b60405180910390fd5b60045434146108f8576040517f08c379a00000000000000000000000000000000000000000000000000000000081526004016108ef90611688565b60405180910390fd5b6109026001611276565b600061090e6001611268565b90506040518060e001604052808281526020018573ffffffffffffffffffffffffffffffffffffffff1681526020018481526020013373ffffffffffffffffffffffffffffffffffffffff168152602001600073ffffffffffffffffffffffffffffffffffffffff16815260200183815260200160001515815250600560008381526020019081526020016000206000820151816000015560208201518160010160006101000a81548173ffffffffffffffffffffffffffffffffffffffff021916908373ffffffffffffffffffffffffffffffffffffffff1602179055506040820151816002015560608201518160030160006101000a81548173ffffffffffffffffffffffffffffffffffffffff021916908373ffffffffffffffffffffffffffffffffffffffff16021790555060808201518160040160006101000a81548173ffffffffffffffffffffffffffffffffffffffff021916908373ffffffffffffffffffffffffffffffffffffffff16021790555060a0820151816005015560c08201518160060160006101000a81548160ff0219169083151502179055509050508373ffffffffffffffffffffffffffffffffffffffff166323b872dd3330866040518463ffffffff1660e01b8152600401610aef9392919061160f565b600060405180830381600087803b158015610b0957600080fd5b505af1158015610b1d573d6000803e3d6000fd5b50505050828473ffffffffffffffffffffffffffffffffffffffff16827f045dfa01dcba2b36aba1d3dc4a874f4b0c5d2fbeb8d2c4b34a7d88c8d8f929d1336000876000604051610b7194939291906115ca565b60405180910390a4506001600081905550505050565b60026000541415610bcd576040517f08c379a0000000000000000000000000000000000000000000000000000000008152600401610bc4906116a8565b60405180910390fd5b6002600081905550600060056000838152602001908152602001600020600501549050600060056000848152602001908152602001600020600201549050813414610c4d576040517f08c379a0000000000000000000000000000000000000000000000000000000008152600401610c4490611668565b60405180910390fd5b6005600084815260200190815260200160002060030160009054906101000a900473ffffffffffffffffffffffffffffffffffffffff1673ffffffffffffffffffffffffffffffffffffffff166108fc349081150290604051600060405180830381858888f19350505050158015610cc9573d6000803e3d6000fd5b508373ffffffffffffffffffffffffffffffffffffffff166323b872dd3033846040518463ffffffff1660e01b8152600401610d079392919061160f565b600060405180830381600087803b158015610d2157600080fd5b505af1158015610d35573d6000803e3d6000fd5b50505050336005600085815260200190815260200160002060040160006101000a81548173ffffffffffffffffffffffffffffffffffffffff021916908373ffffffffffffffffffffffffffffffffffffffff16021790555060016005600085815260200190815260200160002060060160006101000a81548160ff021916908315150217905550610dc76002611276565b600360009054906101000a900473ffffffffffffffffffffffffffffffffffffffff1673ffffffffffffffffffffffffffffffffffffffff166108fc6004549081150290604051600060405180830381858888f19350505050158015610e31573d6000803e3d6000fd5b50808473ffffffffffffffffffffffffffffffffffffffff16847fc9b457702fcb180729b1e1afe12b2853da814f7a5d1b0d23fb3c1c862ca7fa21600360009054906101000a900473ffffffffffffffffffffffffffffffffffffffff1633876001604051610ea394939291906115ca565b60405180910390a4505060016000819055505050565b60606000610ec76001611268565b905060008060005b82811015610f6f573373ffffffffffffffffffffffffffffffffffffffff1660056000600184610eff919061174d565b815260200190815260200160002060030160009054906101000a900473ffffffffffffffffffffffffffffffffffffffff1673ffffffffffffffffffffffffffffffffffffffff161415610f5c578280610f5890611831565b9350505b8080610f6790611831565b915050610ecf565b5060008267ffffffffffffffff811115610fb2577f4e487b7100000000000000000000000000000000000000000000000000000000600052604160045260246000fd5b604051908082528060200260200182016040528015610feb57816020015b610fd861128c565b815260200190600190039081610fd05790505b50905060005b8481101561125d573373ffffffffffffffffffffffffffffffffffffffff1660056000600184611021919061174d565b815260200190815260200160002060030160009054906101000a900473ffffffffffffffffffffffffffffffffffffffff1673ffffffffffffffffffffffffffffffffffffffff16141561124a57600060056000600184611082919061174d565b81526020019081526020016000206000015490506000600560008381526020019081526020016000209050806040518060e0016040529081600082015481526020016001820160009054906101000a900473ffffffffffffffffffffffffffffffffffffffff1673ffffffffffffffffffffffffffffffffffffffff1673ffffffffffffffffffffffffffffffffffffffff168152602001600282015481526020016003820160009054906101000a900473ffffffffffffffffffffffffffffffffffffffff1673ffffffffffffffffffffffffffffffffffffffff1673ffffffffffffffffffffffffffffffffffffffff1681526020016004820160009054906101000a900473ffffffffffffffffffffffffffffffffffffffff1673ffffffffffffffffffffffffffffffffffffffff1673ffffffffffffffffffffffffffffffffffffffff168152602001600582015481526020016006820160009054906101000a900460ff16151515158152505084868151811061122d577f4e487b7100000000000000000000000000000000000000000000000000000000600052603260045260246000fd5b6020026020010181905250600185611245919061174d565b945050505b808061125590611831565b915050610ff1565b508094505050505090565b600081600001549050919050565b6001816000016000828254019250508190555050565b6040518060e0016040528060008152602001600073ffffffffffffffffffffffffffffffffffffffff16815260200160008152602001600073ffffffffffffffffffffffffffffffffffffffff168152602001600073ffffffffffffffffffffffffffffffffffffffff168152602001600081526020016000151581525090565b60008135905061131c81611999565b92915050565b600081359050611331816119b0565b92915050565b6000806040838503121561134a57600080fd5b60006113588582860161130d565b925050602061136985828601611322565b9150509250929050565b60008060006060848603121561138857600080fd5b60006113968682870161130d565b93505060206113a786828701611322565b92505060406113b886828701611322565b9150509250925092565b60006113ce838361151e565b60e08301905092915050565b6113e3816117e9565b82525050565b6113f2816117e9565b82525050565b611401816117d7565b82525050565b611410816117d7565b82525050565b600061142182611713565b61142b818561172b565b935061143683611703565b8060005b8381101561146757815161144e88826113c2565b97506114598361171e565b92505060018101905061143a565b5085935050505092915050565b61147d816117fb565b82525050565b61148c816117fb565b82525050565b600061149f60408361173c565b91506114aa826118a9565b604082019050919050565b60006114c260248361173c565b91506114cd826118f8565b604082019050919050565b60006114e5601f8361173c565b91506114f082611947565b602082019050919050565b6000611508601c8361173c565b915061151382611970565b602082019050919050565b60e08201600082015161153460008501826115ac565b50602082015161154760208501826113f8565b50604082015161155a60408501826115ac565b50606082015161156d60608501826113da565b50608082015161158060808501826113da565b5060a082015161159360a08501826115ac565b5060c08201516115a660c0850182611474565b50505050565b6115b581611827565b82525050565b6115c481611827565b82525050565b60006080820190506115df60008301876113e9565b6115ec60208301866113e9565b6115f960408301856115bb565b6116066060830184611483565b95945050505050565b60006060820190506116246000830186611407565b6116316020830185611407565b61163e60408301846115bb565b949350505050565b600060208201905081810360008301526116608184611416565b905092915050565b6000602082019050818103600083015261168181611492565b9050919050565b600060208201905081810360008301526116a1816114b5565b9050919050565b600060208201905081810360008301526116c1816114d8565b9050919050565b600060208201905081810360008301526116e1816114fb565b9050919050565b60006020820190506116fd60008301846115bb565b92915050565b6000819050602082019050919050565b600081519050919050565b6000602082019050919050565b600082825260208201905092915050565b600082825260208201905092915050565b600061175882611827565b915061176383611827565b9250827fffffffffffffffffffffffffffffffffffffffffffffffffffffffffffffffff038211156117985761179761187a565b5b828201905092915050565b60006117ae82611827565b91506117b983611827565b9250828210156117cc576117cb61187a565b5b828203905092915050565b60006117e282611807565b9050919050565b60006117f482611807565b9050919050565b60008115159050919050565b600073ffffffffffffffffffffffffffffffffffffffff82169050919050565b6000819050919050565b600061183c82611827565b91507fffffffffffffffffffffffffffffffffffffffffffffffffffffffffffffffff82141561186f5761186e61187a565b5b600182019050919050565b7f4e487b7100000000000000000000000000000000000000000000000000000000600052601160045260246000fd5b7f506c65617365207375626d6974207468652061736b696e67207072696365206960008201527f6e206f7264657220746f20636f6d706c65746520746865207075726368617365602082015250565b7f5072696365206d75737420626520657175616c20746f206c697374696e67207060008201527f7269636500000000000000000000000000000000000000000000000000000000602082015250565b7f5265656e7472616e637947756172643a207265656e7472616e742063616c6c00600082015250565b7f5072696365206d757374206265206174206c6561737420312077656900000000600082015250565b6119a2816117d7565b81146119ad57600080fd5b50565b6119b981611827565b81146119c457600080fd5b5056fea2646970667358221220924b9d25587140df5ecac3a7cd0cb37e18b6053b3f2cc35135e1275f27616e5664736f6c63430008040033",
    "linkReferences": {},
    "deployedLinkReferences": {}
}